{
  "contractName": "CrowdFund",
  "abi": [
    {
      "inputs": [
        {
          "internalType": "address",
          "name": "_token",
          "type": "address"
        }
      ],
      "stateMutability": "nonpayable",
      "type": "constructor"
    },
    {
      "anonymous": false,
      "inputs": [
        {
          "indexed": false,
          "internalType": "uint256",
          "name": "id",
          "type": "uint256"
        }
      ],
      "name": "Cancel",
      "type": "event"
    },
    {
      "anonymous": false,
      "inputs": [
        {
          "indexed": false,
          "internalType": "uint256",
          "name": "id",
          "type": "uint256"
        }
      ],
      "name": "Claim",
      "type": "event"
    },
    {
      "anonymous": false,
      "inputs": [
        {
          "indexed": false,
          "internalType": "uint256",
          "name": "id",
          "type": "uint256"
        },
        {
          "indexed": true,
          "internalType": "address",
          "name": "creator",
          "type": "address"
        },
        {
          "indexed": false,
          "internalType": "uint256",
          "name": "goal",
          "type": "uint256"
        },
        {
          "indexed": false,
          "internalType": "uint32",
          "name": "startAt",
          "type": "uint32"
        },
        {
          "indexed": false,
          "internalType": "uint32",
          "name": "endAt",
          "type": "uint32"
        }
      ],
      "name": "Launch",
      "type": "event"
    },
    {
      "anonymous": false,
      "inputs": [
        {
          "indexed": true,
          "internalType": "uint256",
          "name": "id",
          "type": "uint256"
        },
        {
          "indexed": true,
          "internalType": "address",
          "name": "caller",
          "type": "address"
        },
        {
          "indexed": false,
          "internalType": "uint256",
          "name": "amount",
          "type": "uint256"
        }
      ],
      "name": "Pledge",
      "type": "event"
    },
    {
      "anonymous": false,
      "inputs": [
        {
          "indexed": true,
          "internalType": "uint256",
          "name": "id",
          "type": "uint256"
        },
        {
          "indexed": true,
          "internalType": "address",
          "name": "caller",
          "type": "address"
        },
        {
          "indexed": false,
          "internalType": "uint256",
          "name": "amount",
          "type": "uint256"
        }
      ],
      "name": "Refund",
      "type": "event"
    },
    {
      "anonymous": false,
      "inputs": [
        {
          "indexed": true,
          "internalType": "uint256",
          "name": "id",
          "type": "uint256"
        },
        {
          "indexed": true,
          "internalType": "address",
          "name": "caller",
          "type": "address"
        },
        {
          "indexed": false,
          "internalType": "uint256",
          "name": "amount",
          "type": "uint256"
        }
      ],
      "name": "Unpledge",
      "type": "event"
    },
    {
      "inputs": [
        {
          "internalType": "uint256",
          "name": "",
          "type": "uint256"
        }
      ],
      "name": "campaigns",
      "outputs": [
        {
          "internalType": "address",
          "name": "creator",
          "type": "address"
        },
        {
          "internalType": "uint256",
          "name": "goal",
          "type": "uint256"
        },
        {
          "internalType": "uint256",
          "name": "pledged",
          "type": "uint256"
        },
        {
          "internalType": "uint32",
          "name": "startAt",
          "type": "uint32"
        },
        {
          "internalType": "uint32",
          "name": "endAt",
          "type": "uint32"
        },
        {
          "internalType": "bool",
          "name": "claimed",
          "type": "bool"
        }
      ],
      "stateMutability": "view",
      "type": "function"
    },
    {
      "inputs": [
        {
          "internalType": "uint256",
          "name": "",
          "type": "uint256"
        },
        {
          "internalType": "address",
          "name": "",
          "type": "address"
        }
      ],
      "name": "pledgedAmount",
      "outputs": [
        {
          "internalType": "uint256",
          "name": "",
          "type": "uint256"
        }
      ],
      "stateMutability": "view",
      "type": "function"
    },
    {
      "inputs": [],
      "name": "token",
      "outputs": [
        {
          "internalType": "contract IERC20",
          "name": "",
          "type": "address"
        }
      ],
      "stateMutability": "view",
      "type": "function"
    },
    {
      "inputs": [
        {
          "internalType": "uint256",
          "name": "_goal",
          "type": "uint256"
        },
        {
          "internalType": "uint32",
          "name": "_startAt",
          "type": "uint32"
        },
        {
          "internalType": "uint32",
          "name": "_endAt",
          "type": "uint32"
        }
      ],
      "name": "launch",
      "outputs": [],
      "stateMutability": "nonpayable",
      "type": "function"
    },
    {
      "inputs": [
        {
          "internalType": "uint256",
          "name": "_id",
          "type": "uint256"
        }
      ],
      "name": "cancel",
      "outputs": [],
      "stateMutability": "nonpayable",
      "type": "function"
    },
    {
      "inputs": [
        {
          "internalType": "uint256",
          "name": "_id",
          "type": "uint256"
        },
        {
          "internalType": "uint256",
          "name": "_amount",
          "type": "uint256"
        }
      ],
      "name": "pledge",
      "outputs": [],
      "stateMutability": "nonpayable",
      "type": "function"
    },
    {
      "inputs": [
        {
          "internalType": "uint256",
          "name": "_id",
          "type": "uint256"
        },
        {
          "internalType": "uint256",
          "name": "_amount",
          "type": "uint256"
        }
      ],
      "name": "unpledge",
      "outputs": [],
      "stateMutability": "nonpayable",
      "type": "function"
    },
    {
      "inputs": [
        {
          "internalType": "uint256",
          "name": "_id",
          "type": "uint256"
        }
      ],
      "name": "claim",
      "outputs": [],
      "stateMutability": "nonpayable",
      "type": "function"
    },
    {
      "inputs": [
        {
          "internalType": "uint256",
          "name": "_id",
          "type": "uint256"
        }
      ],
      "name": "refund",
      "outputs": [],
      "stateMutability": "nonpayable",
      "type": "function"
    }
  ],
  "bytecode": "0x60a06040523480156200001157600080fd5b5060405162001b6038038062001b608339818101604052810190620000379190620000dc565b8073ffffffffffffffffffffffffffffffffffffffff1660808173ffffffffffffffffffffffffffffffffffffffff1681525050506200010e565b600080fd5b600073ffffffffffffffffffffffffffffffffffffffff82169050919050565b6000620000a48262000077565b9050919050565b620000b68162000097565b8114620000c257600080fd5b50565b600081519050620000d681620000ab565b92915050565b600060208284031215620000f557620000f462000072565b5b60006200010584828501620000c5565b91505092915050565b608051611a1a62000146600039600081816103b6015281816108fe01528181610d4d01528181610e670152610fde0152611a1a6000f3fe608060405234801561001057600080fd5b50600436106100935760003560e01c806340e58ee51161006657806340e58ee514610121578063711853ab1461013d578063aa4fb63a14610159578063fc0c546a14610189578063fde327be146101a757610093565b8063141961bc14610098578063278ecde1146100cd5780632c63f146146100e9578063379607f514610105575b600080fd5b6100b260048036038101906100ad919061110c565b6101c3565b6040516100c4969594939291906111c3565b60405180910390f35b6100e760048036038101906100e2919061110c565b61024c565b005b61010360048036038101906100fe9190611250565b6104a7565b005b61011f600480360381019061011a919061110c565b61073d565b005b61013b6004803603810190610136919061110c565b6109da565b005b610157600480360381019061015291906112a3565b610c55565b005b610173600480360381019061016e919061130f565b610e40565b604051610180919061134f565b60405180910390f35b610191610e65565b60405161019e91906113c9565b60405180910390f35b6101c160048036038101906101bc91906112a3565b610e89565b005b60016020528060005260406000206000915090508060000160009054906101000a900473ffffffffffffffffffffffffffffffffffffffff16908060010154908060020154908060030160009054906101000a900463ffffffff16908060030160049054906101000a900463ffffffff16908060030160089054906101000a900460ff16905086565b60006001600083815260200190815260200160002090508060030160049054906101000a900463ffffffff1663ffffffff1642116102bf576040517f08c379a00000000000000000000000000000000000000000000000000000000081526004016102b690611441565b60405180910390fd5b8060010154816002015410610309576040517f08c379a0000000000000000000000000000000000000000000000000000000008152600401610300906114ad565b60405180910390fd5b60006002600084815260200190815260200160002060003373ffffffffffffffffffffffffffffffffffffffff1673ffffffffffffffffffffffffffffffffffffffff16815260200190815260200160002054905060006002600085815260200190815260200160002060003373ffffffffffffffffffffffffffffffffffffffff1673ffffffffffffffffffffffffffffffffffffffff168152602001908152602001600020819055507f000000000000000000000000000000000000000000000000000000000000000073ffffffffffffffffffffffffffffffffffffffff1663a9059cbb33836040518363ffffffff1660e01b815260040161040f9291906114cd565b6020604051808303816000875af115801561042e573d6000803e3d6000fd5b505050506040513d601f19601f820116820180604052508101906104529190611522565b503373ffffffffffffffffffffffffffffffffffffffff16837f21e12a7cad0da5928167e1084ea4d5fdf8d9af66657a2543a9ac76a0ca0814778360405161049a919061134f565b60405180910390a3505050565b428263ffffffff1610156104f0576040517f08c379a00000000000000000000000000000000000000000000000000000000081526004016104e79061159b565b60405180910390fd5b8163ffffffff168163ffffffff16101561053f576040517f08c379a000000000000000000000000000000000000000000000000000000000815260040161053690611607565b60405180910390fd5b6276a7004261054e9190611656565b8163ffffffff161115610596576040517f08c379a000000000000000000000000000000000000000000000000000000000815260040161058d906116f8565b60405180910390fd5b60016000808282546105a89190611656565b925050819055506040518060c001604052803373ffffffffffffffffffffffffffffffffffffffff168152602001848152602001600081526020018363ffffffff1681526020018263ffffffff16815260200160001515815250600160008054815260200190815260200160002060008201518160000160006101000a81548173ffffffffffffffffffffffffffffffffffffffff021916908373ffffffffffffffffffffffffffffffffffffffff160217905550602082015181600101556040820151816002015560608201518160030160006101000a81548163ffffffff021916908363ffffffff16021790555060808201518160030160046101000a81548163ffffffff021916908363ffffffff16021790555060a08201518160030160086101000a81548160ff0219169083151502179055509050503373ffffffffffffffffffffffffffffffffffffffff167f0601cd0d650b473037e838a2696d41e654433d065b3f56b28d1d3302e44a304f6000548585856040516107309493929190611718565b60405180910390a2505050565b60006001600083815260200190815260200160002090508060030160049054906101000a900463ffffffff1663ffffffff1642116107b0576040517f08c379a00000000000000000000000000000000000000000000000000000000081526004016107a790611441565b60405180910390fd5b8060000160009054906101000a900473ffffffffffffffffffffffffffffffffffffffff1673ffffffffffffffffffffffffffffffffffffffff163373ffffffffffffffffffffffffffffffffffffffff1614610842576040517f08c379a0000000000000000000000000000000000000000000000000000000008152600401610839906117a9565b60405180910390fd5b80600101548160020154101561088d576040517f08c379a0000000000000000000000000000000000000000000000000000000008152600401610884906114ad565b60405180910390fd5b8060030160089054906101000a900460ff16156108df576040517f08c379a00000000000000000000000000000000000000000000000000000000081526004016108d690611815565b60405180910390fd5b60018160030160086101000a81548160ff0219169083151502179055507f000000000000000000000000000000000000000000000000000000000000000073ffffffffffffffffffffffffffffffffffffffff1663a9059cbb3383600201546040518363ffffffff1660e01b815260040161095b9291906114cd565b6020604051808303816000875af115801561097a573d6000803e3d6000fd5b505050506040513d601f19601f8201168201806040525081019061099e9190611522565b507f7bb2b3c10797baccb6f8c4791f1edd6ca2f0d028ee0eda64b01a9a57e3a653f7826040516109ce919061134f565b60405180910390a15050565b6000600160008381526020019081526020016000206040518060c00160405290816000820160009054906101000a900473ffffffffffffffffffffffffffffffffffffffff1673ffffffffffffffffffffffffffffffffffffffff1673ffffffffffffffffffffffffffffffffffffffff16815260200160018201548152602001600282015481526020016003820160009054906101000a900463ffffffff1663ffffffff1663ffffffff1681526020016003820160049054906101000a900463ffffffff1663ffffffff1663ffffffff1681526020016003820160089054906101000a900460ff1615151515815250509050806000015173ffffffffffffffffffffffffffffffffffffffff163373ffffffffffffffffffffffffffffffffffffffff1614610b3f576040517f08c379a0000000000000000000000000000000000000000000000000000000008152600401610b36906117a9565b60405180910390fd5b806060015163ffffffff164210610b8b576040517f08c379a0000000000000000000000000000000000000000000000000000000008152600401610b8290611881565b60405180910390fd5b60016000838152602001908152602001600020600080820160006101000a81549073ffffffffffffffffffffffffffffffffffffffff0219169055600182016000905560028201600090556003820160006101000a81549063ffffffff02191690556003820160046101000a81549063ffffffff02191690556003820160086101000a81549060ff021916905550507f8bf30e7ff26833413be5f69e1d373744864d600b664204b4a2f9844a8eedb9ed82604051610c49919061134f565b60405180910390a15050565b60006001600084815260200190815260200160002090508060030160049054906101000a900463ffffffff1663ffffffff16421115610cc9576040517f08c379a0000000000000000000000000000000000000000000000000000000008152600401610cc0906118ed565b60405180910390fd5b81816002016000828254610cdd919061190d565b92505081905550816002600085815260200190815260200160002060003373ffffffffffffffffffffffffffffffffffffffff1673ffffffffffffffffffffffffffffffffffffffff1681526020019081526020016000206000828254610d44919061190d565b925050819055507f000000000000000000000000000000000000000000000000000000000000000073ffffffffffffffffffffffffffffffffffffffff166323b872dd3330856040518463ffffffff1660e01b8152600401610da893929190611941565b6020604051808303816000875af1158015610dc7573d6000803e3d6000fd5b505050506040513d601f19601f82011682018060405250810190610deb9190611522565b503373ffffffffffffffffffffffffffffffffffffffff16837f2eeeab891b26a214d1b25749f88a406bdea852bd8c9bfda977e0ef8114c180ba84604051610e33919061134f565b60405180910390a3505050565b6002602052816000526040600020602052806000526040600020600091509150505481565b7f000000000000000000000000000000000000000000000000000000000000000081565b60006001600084815260200190815260200160002090508060030160009054906101000a900463ffffffff1663ffffffff16421015610efd576040517f08c379a0000000000000000000000000000000000000000000000000000000008152600401610ef4906119c4565b60405180910390fd5b8060030160049054906101000a900463ffffffff1663ffffffff16421115610f5a576040517f08c379a0000000000000000000000000000000000000000000000000000000008152600401610f51906118ed565b60405180910390fd5b81816002016000828254610f6e9190611656565b92505081905550816002600085815260200190815260200160002060003373ffffffffffffffffffffffffffffffffffffffff1673ffffffffffffffffffffffffffffffffffffffff1681526020019081526020016000206000828254610fd59190611656565b925050819055507f000000000000000000000000000000000000000000000000000000000000000073ffffffffffffffffffffffffffffffffffffffff166323b872dd3330856040518463ffffffff1660e01b815260040161103993929190611941565b6020604051808303816000875af1158015611058573d6000803e3d6000fd5b505050506040513d601f19601f8201168201806040525081019061107c9190611522565b503373ffffffffffffffffffffffffffffffffffffffff16837f06bdb975df800a73232998e71ed585d536222f1dfeaa622d7f62a23ada686c82846040516110c4919061134f565b60405180910390a3505050565b600080fd5b6000819050919050565b6110e9816110d6565b81146110f457600080fd5b50565b600081359050611106816110e0565b92915050565b600060208284031215611122576111216110d1565b5b6000611130848285016110f7565b91505092915050565b600073ffffffffffffffffffffffffffffffffffffffff82169050919050565b600061116482611139565b9050919050565b61117481611159565b82525050565b611183816110d6565b82525050565b600063ffffffff82169050919050565b6111a281611189565b82525050565b60008115159050919050565b6111bd816111a8565b82525050565b600060c0820190506111d8600083018961116b565b6111e5602083018861117a565b6111f2604083018761117a565b6111ff6060830186611199565b61120c6080830185611199565b61121960a08301846111b4565b979650505050505050565b61122d81611189565b811461123857600080fd5b50565b60008135905061124a81611224565b92915050565b600080600060608486031215611269576112686110d1565b5b6000611277868287016110f7565b93505060206112888682870161123b565b92505060406112998682870161123b565b9150509250925092565b600080604083850312156112ba576112b96110d1565b5b60006112c8858286016110f7565b92505060206112d9858286016110f7565b9150509250929050565b6112ec81611159565b81146112f757600080fd5b50565b600081359050611309816112e3565b92915050565b60008060408385031215611326576113256110d1565b5b6000611334858286016110f7565b9250506020611345858286016112fa565b9150509250929050565b6000602082019050611364600083018461117a565b92915050565b6000819050919050565b600061138f61138a61138584611139565b61136a565b611139565b9050919050565b60006113a182611374565b9050919050565b60006113b382611396565b9050919050565b6113c3816113a8565b82525050565b60006020820190506113de60008301846113ba565b92915050565b600082825260208201905092915050565b7f6e6f7420656e6465640000000000000000000000000000000000000000000000600082015250565b600061142b6009836113e4565b9150611436826113f5565b602082019050919050565b6000602082019050818103600083015261145a8161141e565b9050919050565b7f706c6564676564203c20676f616c000000000000000000000000000000000000600082015250565b6000611497600e836113e4565b91506114a282611461565b602082019050919050565b600060208201905081810360008301526114c68161148a565b9050919050565b60006040820190506114e2600083018561116b565b6114ef602083018461117a565b9392505050565b6114ff816111a8565b811461150a57600080fd5b50565b60008151905061151c816114f6565b92915050565b600060208284031215611538576115376110d1565b5b60006115468482850161150d565b91505092915050565b7f7374617274206174203c206e6f77000000000000000000000000000000000000600082015250565b6000611585600e836113e4565b91506115908261154f565b602082019050919050565b600060208201905081810360008301526115b481611578565b9050919050565b7f656e64206174203c207374617274206174000000000000000000000000000000600082015250565b60006115f16011836113e4565b91506115fc826115bb565b602082019050919050565b60006020820190508181036000830152611620816115e4565b9050919050565b7f4e487b7100000000000000000000000000000000000000000000000000000000600052601160045260246000fd5b6000611661826110d6565b915061166c836110d6565b9250827fffffffffffffffffffffffffffffffffffffffffffffffffffffffffffffffff038211156116a1576116a0611627565b5b828201905092915050565b7f656e64206174203e206d6178206475726174696f6e0000000000000000000000600082015250565b60006116e26015836113e4565b91506116ed826116ac565b602082019050919050565b60006020820190508181036000830152611711816116d5565b9050919050565b600060808201905061172d600083018761117a565b61173a602083018661117a565b6117476040830185611199565b6117546060830184611199565b95945050505050565b7f6e6f742063726561746f72000000000000000000000000000000000000000000600082015250565b6000611793600b836113e4565b915061179e8261175d565b602082019050919050565b600060208201905081810360008301526117c281611786565b9050919050565b7f636c61696d656400000000000000000000000000000000000000000000000000600082015250565b60006117ff6007836113e4565b915061180a826117c9565b602082019050919050565b6000602082019050818103600083015261182e816117f2565b9050919050565b7f7374617274656400000000000000000000000000000000000000000000000000600082015250565b600061186b6007836113e4565b915061187682611835565b602082019050919050565b6000602082019050818103600083015261189a8161185e565b9050919050565b7f656e646564000000000000000000000000000000000000000000000000000000600082015250565b60006118d76005836113e4565b91506118e2826118a1565b602082019050919050565b60006020820190508181036000830152611906816118ca565b9050919050565b6000611918826110d6565b9150611923836110d6565b92508282101561193657611935611627565b5b828203905092915050565b6000606082019050611956600083018661116b565b611963602083018561116b565b611970604083018461117a565b949350505050565b7f6e6f742073746172746564000000000000000000000000000000000000000000600082015250565b60006119ae600b836113e4565b91506119b982611978565b602082019050919050565b600060208201905081810360008301526119dd816119a1565b905091905056fea2646970667358221220021ef2a01038753640259c399e5105760330d8b527005ed6b57d4c8f704b803a64736f6c634300080e0033",
  "immutableReferences": {
    "142": [
      {
        "length": 32,
        "start": 950
      },
      {
        "length": 32,
        "start": 2302
      },
      {
        "length": 32,
        "start": 3405
      },
      {
        "length": 32,
        "start": 3687
      },
      {
        "length": 32,
        "start": 4062
      }
    ]
  },
  "source": "// SPDX-License-Identifier: MIT\npragma solidity ^0.8.6;\n\nimport \"@openzeppelin/contracts/token/ERC20/IERC20.sol\";\n\ncontract CrowdFund {\n    event Launch(\n        uint id,\n        address indexed creator,\n        uint goal,\n        uint32 startAt,\n        uint32 endAt\n    );\n    event Claim(uint id);\n    event Cancel(uint id);\n    event Pledge(uint indexed id, address indexed caller, uint amount);\n    event Unpledge(uint indexed id, address indexed caller, uint amount);\n    event Refund(uint indexed id, address indexed caller, uint amount);\n\n    struct Campaign{\n        address creator;\n        uint goal;\n        uint pledged;\n        uint32 startAt;\n        uint32 endAt;\n        bool claimed;\n    }\n    uint256 count;\n    IERC20 public immutable token;\n    mapping(uint => Campaign) public campaigns;\n    mapping(uint => mapping(address => uint)) public pledgedAmount;\n\n    constructor(address _token) {\n        token = IERC20(_token);\n    }\n\n    function launch(uint _goal, uint32 _startAt, uint32 _endAt) external {\n        require(_startAt >= block.timestamp, \"start at < now\");\n        require(_endAt >= _startAt, \"end at < start at\");\n        require(_endAt <= block.timestamp + 90 days, \"end at > max duration\");\n\n\n         count += 1;\n         campaigns[count] = Campaign({\n             creator: msg.sender,\n             goal: _goal,\n             pledged: 0,\n             startAt: _startAt,\n             endAt: _endAt,\n             claimed: false\n         });\n\n         emit Launch(count, msg.sender, _goal, _startAt, _endAt);\n    }\n\n    function cancel(uint _id) external {\n        Campaign memory campaign = campaigns[_id];\n        require(msg.sender == campaign.creator, \"not creator\");\n        require(block.timestamp < campaign.startAt, \"started\");\n        delete campaigns[_id];\n        emit Cancel(_id);\n\n    }\n\n    function pledge(uint _id, uint _amount) external {\n        Campaign storage campaign = campaigns[_id];\n        require(block.timestamp >= campaign.startAt, \"not started\");\n        require(block.timestamp <= campaign.endAt, \"ended\");\n\n        campaign.pledged += _amount;\n        pledgedAmount[_id][msg.sender] += _amount;\n        token.transferFrom(msg.sender, address(this), _amount);\n\n        emit Pledge(_id, msg.sender, _amount);\n\n    }\n\n    function unpledge(uint _id, uint _amount) external {\n        Campaign storage campaign = campaigns[_id];\n        require(block.timestamp <= campaign.endAt, \"ended\");\n\n        campaign.pledged -= _amount;\n        pledgedAmount[_id][msg.sender] -= _amount;\n        token.transferFrom(msg.sender, address(this), _amount);\n\n        emit Unpledge(_id, msg.sender, _amount);\n    }\n\n    function claim(uint _id) external {\n        Campaign storage campaign = campaigns[_id];\n        require(block.timestamp > campaign.endAt, \"not ended\");\n        require(msg.sender == campaign.creator, \"not creator\");\n        require(campaign.pledged >= campaign.goal, \"pledged < goal\");\n        require(!campaign.claimed, \"claimed\");\n\n        campaign.claimed = true;\n        token.transfer(msg.sender, campaign.pledged);\n\n        emit Claim(_id);\n    }\n\n    function refund(uint _id) external {\n        Campaign storage campaign = campaigns[_id];\n        require(block.timestamp > campaign.endAt, \"not ended\");\n        require(campaign.pledged < campaign.goal, \"pledged < goal\");\n\n        uint bal = pledgedAmount[_id][msg.sender];\n        pledgedAmount[_id][msg.sender] = 0;\n        token.transfer(msg.sender, bal);\n\n        emit Refund(_id, msg.sender, bal);\n\n       \n    }\n\n\n}\n",
  "sourcePath": "C:\\Users\\Prince-Joel\\FundME\\contracts\\CrowdFund.sol",
  "compiler": {
    "name": "solc",
    "version": "0.8.14+commit.80d49f37.Emscripten.clang"
  },
  "schemaVersion": "3.4.7",
  "updatedAt": "2022-07-06T03:29:15.957Z",
  "devdoc": {
    "kind": "dev",
    "methods": {},
    "version": 1
  },
  "userdoc": {
    "kind": "user",
    "methods": {},
    "version": 1
  }
}